{
  "_format": "hh-sol-artifact-1",
  "contractName": "Domains",
  "sourceName": "contracts/Domains.sol",
  "abi": [
    {
      "inputs": [
        {
          "internalType": "string",
          "name": "_tld",
          "type": "string"
        }
      ],
      "stateMutability": "payable",
      "type": "constructor"
    },
    {
      "inputs": [],
      "name": "AlreadyRegistered",
      "type": "error"
    },
    {
      "inputs": [
        {
          "internalType": "string",
          "name": "name",
          "type": "string"
        }
      ],
      "name": "InvalidName",
      "type": "error"
    },
    {
      "inputs": [],
      "name": "Unauthorized",
      "type": "error"
    },
    {
      "anonymous": false,
      "inputs": [
        {
          "indexed": true,
          "internalType": "address",
          "name": "owner",
          "type": "address"
        },
        {
          "indexed": true,
          "internalType": "address",
          "name": "approved",
          "type": "address"
        },
        {
          "indexed": true,
          "internalType": "uint256",
          "name": "tokenId",
          "type": "uint256"
        }
      ],
      "name": "Approval",
      "type": "event"
    },
    {
      "anonymous": false,
      "inputs": [
        {
          "indexed": true,
          "internalType": "address",
          "name": "owner",
          "type": "address"
        },
        {
          "indexed": true,
          "internalType": "address",
          "name": "operator",
          "type": "address"
        },
        {
          "indexed": false,
          "internalType": "bool",
          "name": "approved",
          "type": "bool"
        }
      ],
      "name": "ApprovalForAll",
      "type": "event"
    },
    {
      "anonymous": false,
      "inputs": [
        {
          "indexed": true,
          "internalType": "address",
          "name": "from",
          "type": "address"
        },
        {
          "indexed": true,
          "internalType": "address",
          "name": "to",
          "type": "address"
        },
        {
          "indexed": true,
          "internalType": "uint256",
          "name": "tokenId",
          "type": "uint256"
        }
      ],
      "name": "Transfer",
      "type": "event"
    },
    {
      "inputs": [
        {
          "internalType": "address",
          "name": "to",
          "type": "address"
        },
        {
          "internalType": "uint256",
          "name": "tokenId",
          "type": "uint256"
        }
      ],
      "name": "approve",
      "outputs": [],
      "stateMutability": "nonpayable",
      "type": "function"
    },
    {
      "inputs": [
        {
          "internalType": "address",
          "name": "owner",
          "type": "address"
        }
      ],
      "name": "balanceOf",
      "outputs": [
        {
          "internalType": "uint256",
          "name": "",
          "type": "uint256"
        }
      ],
      "stateMutability": "view",
      "type": "function"
    },
    {
      "inputs": [
        {
          "internalType": "string",
          "name": "",
          "type": "string"
        }
      ],
      "name": "domains",
      "outputs": [
        {
          "internalType": "address",
          "name": "",
          "type": "address"
        }
      ],
      "stateMutability": "view",
      "type": "function"
    },
    {
      "inputs": [
        {
          "internalType": "string",
          "name": "name",
          "type": "string"
        }
      ],
      "name": "getAddress",
      "outputs": [
        {
          "internalType": "address",
          "name": "",
          "type": "address"
        }
      ],
      "stateMutability": "view",
      "type": "function"
    },
    {
      "inputs": [],
      "name": "getAllNames",
      "outputs": [
        {
          "internalType": "string[]",
          "name": "",
          "type": "string[]"
        }
      ],
      "stateMutability": "view",
      "type": "function"
    },
    {
      "inputs": [
        {
          "internalType": "uint256",
          "name": "tokenId",
          "type": "uint256"
        }
      ],
      "name": "getApproved",
      "outputs": [
        {
          "internalType": "address",
          "name": "",
          "type": "address"
        }
      ],
      "stateMutability": "view",
      "type": "function"
    },
    {
      "inputs": [
        {
          "internalType": "string",
          "name": "name",
          "type": "string"
        }
      ],
      "name": "getRecord",
      "outputs": [
        {
          "internalType": "string",
          "name": "",
          "type": "string"
        }
      ],
      "stateMutability": "view",
      "type": "function"
    },
    {
      "inputs": [
        {
          "internalType": "address",
          "name": "owner",
          "type": "address"
        },
        {
          "internalType": "address",
          "name": "operator",
          "type": "address"
        }
      ],
      "name": "isApprovedForAll",
      "outputs": [
        {
          "internalType": "bool",
          "name": "",
          "type": "bool"
        }
      ],
      "stateMutability": "view",
      "type": "function"
    },
    {
      "inputs": [],
      "name": "name",
      "outputs": [
        {
          "internalType": "string",
          "name": "",
          "type": "string"
        }
      ],
      "stateMutability": "view",
      "type": "function"
    },
    {
      "inputs": [
        {
          "internalType": "uint256",
          "name": "",
          "type": "uint256"
        }
      ],
      "name": "names",
      "outputs": [
        {
          "internalType": "string",
          "name": "",
          "type": "string"
        }
      ],
      "stateMutability": "view",
      "type": "function"
    },
    {
      "inputs": [],
      "name": "owner",
      "outputs": [
        {
          "internalType": "address payable",
          "name": "",
          "type": "address"
        }
      ],
      "stateMutability": "view",
      "type": "function"
    },
    {
      "inputs": [
        {
          "internalType": "uint256",
          "name": "tokenId",
          "type": "uint256"
        }
      ],
      "name": "ownerOf",
      "outputs": [
        {
          "internalType": "address",
          "name": "",
          "type": "address"
        }
      ],
      "stateMutability": "view",
      "type": "function"
    },
    {
      "inputs": [
        {
          "internalType": "string",
          "name": "name",
          "type": "string"
        }
      ],
      "name": "price",
      "outputs": [
        {
          "internalType": "uint256",
          "name": "",
          "type": "uint256"
        }
      ],
      "stateMutability": "pure",
      "type": "function"
    },
    {
      "inputs": [
        {
          "internalType": "string",
          "name": "",
          "type": "string"
        }
      ],
      "name": "records",
      "outputs": [
        {
          "internalType": "string",
          "name": "",
          "type": "string"
        }
      ],
      "stateMutability": "view",
      "type": "function"
    },
    {
      "inputs": [
        {
          "internalType": "string",
          "name": "name",
          "type": "string"
        }
      ],
      "name": "register",
      "outputs": [],
      "stateMutability": "payable",
      "type": "function"
    },
    {
      "inputs": [
        {
          "internalType": "address",
          "name": "from",
          "type": "address"
        },
        {
          "internalType": "address",
          "name": "to",
          "type": "address"
        },
        {
          "internalType": "uint256",
          "name": "tokenId",
          "type": "uint256"
        }
      ],
      "name": "safeTransferFrom",
      "outputs": [],
      "stateMutability": "nonpayable",
      "type": "function"
    },
    {
      "inputs": [
        {
          "internalType": "address",
          "name": "from",
          "type": "address"
        },
        {
          "internalType": "address",
          "name": "to",
          "type": "address"
        },
        {
          "internalType": "uint256",
          "name": "tokenId",
          "type": "uint256"
        },
        {
          "internalType": "bytes",
          "name": "_data",
          "type": "bytes"
        }
      ],
      "name": "safeTransferFrom",
      "outputs": [],
      "stateMutability": "nonpayable",
      "type": "function"
    },
    {
      "inputs": [
        {
          "internalType": "address",
          "name": "operator",
          "type": "address"
        },
        {
          "internalType": "bool",
          "name": "approved",
          "type": "bool"
        }
      ],
      "name": "setApprovalForAll",
      "outputs": [],
      "stateMutability": "nonpayable",
      "type": "function"
    },
    {
      "inputs": [
        {
          "internalType": "string",
          "name": "name",
          "type": "string"
        },
        {
          "internalType": "string",
          "name": "record",
          "type": "string"
        }
      ],
      "name": "setRecord",
      "outputs": [],
      "stateMutability": "nonpayable",
      "type": "function"
    },
    {
      "inputs": [
        {
          "internalType": "bytes4",
          "name": "interfaceId",
          "type": "bytes4"
        }
      ],
      "name": "supportsInterface",
      "outputs": [
        {
          "internalType": "bool",
          "name": "",
          "type": "bool"
        }
      ],
      "stateMutability": "view",
      "type": "function"
    },
    {
      "inputs": [],
      "name": "symbol",
      "outputs": [
        {
          "internalType": "string",
          "name": "",
          "type": "string"
        }
      ],
      "stateMutability": "view",
      "type": "function"
    },
    {
      "inputs": [],
      "name": "tld",
      "outputs": [
        {
          "internalType": "string",
          "name": "",
          "type": "string"
        }
      ],
      "stateMutability": "view",
      "type": "function"
    },
    {
      "inputs": [
        {
          "internalType": "uint256",
          "name": "tokenId",
          "type": "uint256"
        }
      ],
      "name": "tokenURI",
      "outputs": [
        {
          "internalType": "string",
          "name": "",
          "type": "string"
        }
      ],
      "stateMutability": "view",
      "type": "function"
    },
    {
      "inputs": [
        {
          "internalType": "address",
          "name": "from",
          "type": "address"
        },
        {
          "internalType": "address",
          "name": "to",
          "type": "address"
        },
        {
          "internalType": "uint256",
          "name": "tokenId",
          "type": "uint256"
        }
      ],
      "name": "transferFrom",
      "outputs": [],
      "stateMutability": "nonpayable",
      "type": "function"
    },
    {
      "inputs": [
        {
          "internalType": "string",
          "name": "name",
          "type": "string"
        }
      ],
      "name": "valid",
      "outputs": [
        {
          "internalType": "bool",
          "name": "",
          "type": "bool"
        }
      ],
      "stateMutability": "pure",
      "type": "function"
    },
    {
      "inputs": [],
      "name": "withdraw",
      "outputs": [],
      "stateMutability": "nonpayable",
      "type": "function"
    }
  ],
  "bytecode": "0x6080604052604051806108a0016040528061086b8152602001620054b261086b91396008908051906020019062000038929190620002c8565b506040518060400160405280600d81526020017f3c2f746578743e3c2f7376673e000000000000000000000000000000000000008152506009908051906020019062000086929190620002c8565b5060405162005d1d38038062005d1d8339818101604052810190620000ac9190620003ea565b6040518060400160405280601081526020017f777466204e616d652053657276696365000000000000000000000000000000008152506040518060400160405280600381526020017f5754460000000000000000000000000000000000000000000000000000000000815250816000908051906020019062000130929190620002c8565b50806001908051906020019062000149929190620002c8565b50505033600b60006101000a81548173ffffffffffffffffffffffffffffffffffffffff021916908373ffffffffffffffffffffffffffffffffffffffff16021790555080600a9080519060200190620001a5929190620002c8565b50620001f26040518060400160405280601881526020017f2573206e616d652073657276696365206465706c6f796564000000000000000081525082620001f960201b62001cb41760201c565b5062000637565b6200029b82826040516024016200021292919062000470565b6040516020818303038152906040527f4b5c4277000000000000000000000000000000000000000000000000000000007bffffffffffffffffffffffffffffffffffffffffffffffffffffffff19166020820180517bffffffffffffffffffffffffffffffffffffffffffffffffffffffff83818316178352505050506200029f60201b60201c565b5050565b60008151905060006a636f6e736f6c652e6c6f679050602083016000808483855afa5050505050565b828054620002d6906200055c565b90600052602060002090601f016020900481019282620002fa576000855562000346565b82601f106200031557805160ff191683800117855562000346565b8280016001018555821562000346579182015b828111156200034557825182559160200191906001019062000328565b5b50905062000355919062000359565b5090565b5b80821115620003745760008160009055506001016200035a565b5090565b60006200038f6200038984620004d4565b620004ab565b905082815260208101848484011115620003a857600080fd5b620003b584828562000526565b509392505050565b600082601f830112620003cf57600080fd5b8151620003e184826020860162000378565b91505092915050565b600060208284031215620003fd57600080fd5b600082015167ffffffffffffffff8111156200041857600080fd5b6200042684828501620003bd565b91505092915050565b60006200043c826200050a565b62000448818562000515565b93506200045a81856020860162000526565b620004658162000626565b840191505092915050565b600060408201905081810360008301526200048c81856200042f565b90508181036020830152620004a281846200042f565b90509392505050565b6000620004b7620004ca565b9050620004c5828262000592565b919050565b6000604051905090565b600067ffffffffffffffff821115620004f257620004f1620005f7565b5b620004fd8262000626565b9050602081019050919050565b600081519050919050565b600082825260208201905092915050565b60005b838110156200054657808201518184015260208101905062000529565b8381111562000556576000848401525b50505050565b600060028204905060018216806200057557607f821691505b602082108114156200058c576200058b620005c8565b5b50919050565b6200059d8262000626565b810181811067ffffffffffffffff82111715620005bf57620005be620005f7565b5b80604052505050565b7f4e487b7100000000000000000000000000000000000000000000000000000000600052602260045260246000fd5b7f4e487b7100000000000000000000000000000000000000000000000000000000600052604160045260246000fd5b6000601f19601f8301169050919050565b614e6b80620006476000396000f3fe6080604052600436106101815760003560e01c806370a08231116100d1578063bf40fac11161008a578063e985e9c511610064578063e985e9c5146105de578063f2c298be1461061b578063fb825e5f14610637578063fe2c61981461066257610181565b8063bf40fac11461053b578063c1880a9814610578578063c87b56dd146105a157610181565b806370a08231146104195780638da5cb5b1461045657806395d89b41146104815780639791c097146104ac578063a22cb465146104e9578063b88d4fde1461051257610181565b8063264492351161013e57806342842e0e1161011857806342842e0e146103395780634622ab0314610362578063541e771d1461039f5780636352211e146103dc57610181565b806326449235146102ba5780632d551432146102f75780633ccfd60b1461032257610181565b806301ffc9a71461018657806306fdde03146101c3578063081812fc146101ee578063095ea7b31461022b57806311dd88451461025457806323b872dd14610291575b600080fd5b34801561019257600080fd5b506101ad60048036038101906101a891906134fe565b61069f565b6040516101ba9190613e4b565b60405180910390f35b3480156101cf57600080fd5b506101d8610781565b6040516101e59190613e8a565b60405180910390f35b3480156101fa57600080fd5b506102156004803603810190610210919061364b565b610813565b6040516102229190613da7565b60405180910390f35b34801561023757600080fd5b50610252600480360381019061024d91906134c2565b610898565b005b34801561026057600080fd5b5061027b60048036038101906102769190613550565b6109b0565b6040516102889190613e8a565b60405180910390f35b34801561029d57600080fd5b506102b860048036038101906102b391906133bc565b610a63565b005b3480156102c657600080fd5b506102e160048036038101906102dc919061360a565b610ac3565b6040516102ee9190613da7565b60405180910390f35b34801561030357600080fd5b5061030c610b0c565b6040516103199190613e8a565b60405180910390f35b34801561032e57600080fd5b50610337610b9a565b005b34801561034557600080fd5b50610360600480360381019061035b91906133bc565b610cdf565b005b34801561036e57600080fd5b506103896004803603810190610384919061364b565b610cff565b6040516103969190613e8a565b60405180910390f35b3480156103ab57600080fd5b506103c660048036038101906103c1919061360a565b610d9f565b6040516103d39190613e8a565b60405180910390f35b3480156103e857600080fd5b5061040360048036038101906103fe919061364b565b610e55565b6040516104109190613da7565b60405180910390f35b34801561042557600080fd5b50610440600480360381019061043b9190613357565b610f07565b60405161044d91906141e2565b60405180910390f35b34801561046257600080fd5b5061046b610fbf565b6040516104789190613dc2565b60405180910390f35b34801561048d57600080fd5b50610496610fe5565b6040516104a39190613e8a565b60405180910390f35b3480156104b857600080fd5b506104d360048036038101906104ce9190613550565b611077565b6040516104e09190613e4b565b60405180910390f35b3480156104f557600080fd5b50610510600480360381019061050b9190613486565b61112b565b005b34801561051e57600080fd5b506105396004803603810190610534919061340b565b611141565b005b34801561054757600080fd5b50610562600480360381019061055d9190613550565b6111a3565b60405161056f9190613da7565b60405180910390f35b34801561058457600080fd5b5061059f600480360381019061059a9190613595565b611293565b005b3480156105ad57600080fd5b506105c860048036038101906105c3919061364b565b611341565b6040516105d59190613e8a565b60405180910390f35b3480156105ea57600080fd5b5061060560048036038101906106009190613380565b611493565b6040516106129190613e4b565b60405180910390f35b61063560048036038101906106309190613550565b611527565b005b34801561064357600080fd5b5061064c6119a5565b6040516106599190613e29565b60405180910390f35b34801561066e57600080fd5b5061068960048036038101906106849190613550565b611bf4565b60405161069691906141e2565b60405180910390f35b60007f80ac58cd000000000000000000000000000000000000000000000000000000007bffffffffffffffffffffffffffffffffffffffffffffffffffffffff1916827bffffffffffffffffffffffffffffffffffffffffffffffffffffffff1916148061076a57507f5b5e139f000000000000000000000000000000000000000000000000000000007bffffffffffffffffffffffffffffffffffffffffffffffffffffffff1916827bffffffffffffffffffffffffffffffffffffffffffffffffffffffff1916145b8061077a575061077982611d50565b5b9050919050565b6060600080546107909061450e565b80601f01602080910402602001604051908101604052809291908181526020018280546107bc9061450e565b80156108095780601f106107de57610100808354040283529160200191610809565b820191906000526020600020905b8154815290600101906020018083116107ec57829003601f168201915b5050505050905090565b600061081e82611dba565b61085d576040517f08c379a000000000000000000000000000000000000000000000000000000000815260040161085490614142565b60405180910390fd5b6004600083815260200190815260200160002060009054906101000a900473ffffffffffffffffffffffffffffffffffffffff169050919050565b60006108a382610e55565b90508073ffffffffffffffffffffffffffffffffffffffff168373ffffffffffffffffffffffffffffffffffffffff161415610914576040517f08c379a000000000000000000000000000000000000000000000000000000000815260040161090b90614182565b60405180910390fd5b8073ffffffffffffffffffffffffffffffffffffffff16610933611e26565b73ffffffffffffffffffffffffffffffffffffffff16148061096257506109618161095c611e26565b611493565b5b6109a1576040517f08c379a000000000000000000000000000000000000000000000000000000000815260040161099890614082565b60405180910390fd5b6109ab8383611e2e565b505050565b6060600d83836040516109c4929190613c74565b908152602001604051809103902080546109dd9061450e565b80601f0160208091040260200160405190810160405280929190818152602001828054610a099061450e565b8015610a565780601f10610a2b57610100808354040283529160200191610a56565b820191906000526020600020905b815481529060010190602001808311610a3957829003601f168201915b5050505050905092915050565b610a74610a6e611e26565b82611ee7565b610ab3576040517f08c379a0000000000000000000000000000000000000000000000000000000008152600401610aaa906141c2565b60405180910390fd5b610abe838383611fc5565b505050565b600c818051602081018201805184825260208301602085012081835280955050505050506000915054906101000a900473ffffffffffffffffffffffffffffffffffffffff1681565b600a8054610b199061450e565b80601f0160208091040260200160405190810160405280929190818152602001828054610b459061450e565b8015610b925780601f10610b6757610100808354040283529160200191610b92565b820191906000526020600020905b815481529060010190602001808311610b7557829003601f168201915b505050505081565b600b60009054906101000a900473ffffffffffffffffffffffffffffffffffffffff1673ffffffffffffffffffffffffffffffffffffffff163373ffffffffffffffffffffffffffffffffffffffff1614610c2a576040517f08c379a0000000000000000000000000000000000000000000000000000000008152600401610c2190614022565b60405180910390fd5b600047905060003373ffffffffffffffffffffffffffffffffffffffff1682604051610c5590613d92565b60006040518083038185875af1925050503d8060008114610c92576040519150601f19603f3d011682016040523d82523d6000602084013e610c97565b606091505b5050905080610cdb576040517f08c379a0000000000000000000000000000000000000000000000000000000008152600401610cd290614042565b60405180910390fd5b5050565b610cfa83838360405180602001604052806000815250611141565b505050565b600e6020528060005260406000206000915090508054610d1e9061450e565b80601f0160208091040260200160405190810160405280929190818152602001828054610d4a9061450e565b8015610d975780601f10610d6c57610100808354040283529160200191610d97565b820191906000526020600020905b815481529060010190602001808311610d7a57829003601f168201915b505050505081565b600d818051602081018201805184825260208301602085012081835280955050505050506000915090508054610dd49061450e565b80601f0160208091040260200160405190810160405280929190818152602001828054610e009061450e565b8015610e4d5780601f10610e2257610100808354040283529160200191610e4d565b820191906000526020600020905b815481529060010190602001808311610e3057829003601f168201915b505050505081565b6000806002600084815260200190815260200160002060009054906101000a900473ffffffffffffffffffffffffffffffffffffffff169050600073ffffffffffffffffffffffffffffffffffffffff168173ffffffffffffffffffffffffffffffffffffffff161415610efe576040517f08c379a0000000000000000000000000000000000000000000000000000000008152600401610ef5906140c2565b60405180910390fd5b80915050919050565b60008073ffffffffffffffffffffffffffffffffffffffff168273ffffffffffffffffffffffffffffffffffffffff161415610f78576040517f08c379a0000000000000000000000000000000000000000000000000000000008152600401610f6f906140a2565b60405180910390fd5b600360008373ffffffffffffffffffffffffffffffffffffffff1673ffffffffffffffffffffffffffffffffffffffff168152602001908152602001600020549050919050565b600b60009054906101000a900473ffffffffffffffffffffffffffffffffffffffff1681565b606060018054610ff49061450e565b80601f01602080910402602001604051908101604052809291908181526020018280546110209061450e565b801561106d5780601f106110425761010080835404028352916020019161106d565b820191906000526020600020905b81548152906001019060200180831161105057829003601f168201915b5050505050905090565b600060036110c884848080601f016020809104026020016040519081016040528093929190818152602001838380828437600081840152601f19601f8201169050808301925050505050505061222c565b101580156111235750600961112084848080601f016020809104026020016040519081016040528093929190818152602001838380828437600081840152601f19601f8201169050808301925050505050505061222c565b11155b905092915050565b61113d611136611e26565b8383612407565b5050565b61115261114c611e26565b83611ee7565b611191576040517f08c379a0000000000000000000000000000000000000000000000000000000008152600401611188906141c2565b60405180910390fd5b61119d84848484612574565b50505050565b6000600c83836040516111b7929190613c74565b908152602001604051809103902060009054906101000a900473ffffffffffffffffffffffffffffffffffffffff1673ffffffffffffffffffffffffffffffffffffffff163373ffffffffffffffffffffffffffffffffffffffff161461124a576040517f82b4290000000000000000000000000000000000000000000000000000000000815260040160405180910390fd5b600c838360405161125c929190613c74565b908152602001604051809103902060009054906101000a900473ffffffffffffffffffffffffffffffffffffffff16905092915050565b600c84846040516112a5929190613c74565b908152602001604051809103902060009054906101000a900473ffffffffffffffffffffffffffffffffffffffff1673ffffffffffffffffffffffffffffffffffffffff163373ffffffffffffffffffffffffffffffffffffffff161461130b57600080fd5b8181600d868660405161131f929190613c74565b9081526020016040518091039020919061133a9291906130ab565b5050505050565b606061134c82611dba565b61138b576040517f08c379a000000000000000000000000000000000000000000000000000000000815260040161138290614122565b60405180910390fd5b60006006600084815260200190815260200160002080546113ab9061450e565b80601f01602080910402602001604051908101604052809291908181526020018280546113d79061450e565b80156114245780601f106113f957610100808354040283529160200191611424565b820191906000526020600020905b81548152906001019060200180831161140757829003601f168201915b5050505050905060006114356125d0565b905060008151141561144b57819250505061148e565b600082511115611480578082604051602001611468929190613cbe565b6040516020818303038152906040529250505061148e565b611489846125e7565b925050505b919050565b6000600560008473ffffffffffffffffffffffffffffffffffffffff1673ffffffffffffffffffffffffffffffffffffffff16815260200190815260200160002060008373ffffffffffffffffffffffffffffffffffffffff1673ffffffffffffffffffffffffffffffffffffffff16815260200190815260200160002060009054906101000a900460ff16905092915050565b600073ffffffffffffffffffffffffffffffffffffffff16600c8383604051611551929190613c74565b908152602001604051809103902060009054906101000a900473ffffffffffffffffffffffffffffffffffffffff1673ffffffffffffffffffffffffffffffffffffffff16146115cd576040517f3a81d6fc00000000000000000000000000000000000000000000000000000000815260040160405180910390fd5b6115d78282611077565b61161a5781816040517f7f19f48d000000000000000000000000000000000000000000000000000000008152600401611611929190613e66565b60405180910390fd5b60006116268383611bf4565b90508034101561166b576040517f08c379a0000000000000000000000000000000000000000000000000000000008152600401611662906141a2565b60405180910390fd5b60008383600a60405160200161168393929190613c8d565b6040516020818303038152906040529050600060088260096040516020016116ad93929190613ce2565b604051602081830303815290604052905060006116ca600761268e565b9050600061171b87878080601f016020809104026020016040519081016040528093929190818152602001838380828437600081840152601f19601f8201169050808301925050505050505061222c565b905060006117288261269c565b905061181c604051806060016040528060318152602001614d8c6031913989898080601f016020809104026020016040519081016040528093929190818152602001838380828437600081840152601f19601f82011690508083019250505050505050600a80546117989061450e565b80601f01602080910402602001604051908101604052809291908181526020018280546117c49061450e565b80156118115780601f106117e657610100808354040283529160200191611811565b820191906000526020600020905b8154815290600101906020018083116117f457829003601f168201915b505050505086612849565b60006118528661182b876128eb565b8460405160200161183e93929190613d13565b6040516020818303038152906040526128eb565b90506000816040516020016118679190613d70565b6040516020818303038152906040529050611899604051806060016040528060398152602001614d5360399139612aa9565b6118d86040518060400160405280600e81526020017f46696e616c20746f6b656e55524900000000000000000000000000000000000081525082611cb4565b6118f9604051806060016040528060398152602001614dbd60399139612aa9565b6119033386612b42565b61190d8582612b60565b33600c8b8b604051611920929190613c74565b908152602001604051809103902060006101000a81548173ffffffffffffffffffffffffffffffffffffffff021916908373ffffffffffffffffffffffffffffffffffffffff1602179055506119766007612bd4565b8989600e600088815260200190815260200160002091906119989291906130ab565b5050505050505050505050565b60606119e56040518060400160405280601f81526020017f47657474696e6720616c6c206e616d65732066726f6d20636f6e747261637400815250612aa9565b60006119f1600761268e565b67ffffffffffffffff811115611a30577f4e487b7100000000000000000000000000000000000000000000000000000000600052604160045260246000fd5b604051908082528060200260200182016040528015611a6357816020015b6060815260200190600190039081611a4e5790505b50905060005b611a73600761268e565b8111611bec57600e60008281526020019081526020016000208054611a979061450e565b80601f0160208091040260200160405190810160405280929190818152602001828054611ac39061450e565b8015611b105780601f10611ae557610100808354040283529160200191611b10565b820191906000526020600020905b815481529060010190602001808311611af357829003601f168201915b5050505050828281518110611b4e577f4e487b7100000000000000000000000000000000000000000000000000000000600052603260045260246000fd5b6020026020010181905250611bd96040518060400160405280601781526020017f4e616d6520666f7220746f6b656e20256420697320257300000000000000000081525082848481518110611bcc577f4e487b7100000000000000000000000000000000000000000000000000000000600052603260045260246000fd5b6020026020010151612bea565b8080611be490614571565b915050611a69565b508091505090565b600080611c4484848080601f016020809104026020016040519081016040528093929190818152602001838380828437600081840152601f19601f8201169050808301925050505050505061222c565b905060008111611c5357600080fd5b6002811415611c6d576706f05b59d3b20000915050611cae565b6003811415611c875767058d15e176280000915050611cae565b6004811415611ca157670429d069189e0000915050611cae565b67016345785d8a00009150505b92915050565b611d4c8282604051602401611cca929190613eac565b6040516020818303038152906040527f4b5c4277000000000000000000000000000000000000000000000000000000007bffffffffffffffffffffffffffffffffffffffffffffffffffffffff19166020820180517bffffffffffffffffffffffffffffffffffffffffffffffffffffffff8381831617835250505050612c89565b5050565b60007f01ffc9a7000000000000000000000000000000000000000000000000000000007bffffffffffffffffffffffffffffffffffffffffffffffffffffffff1916827bffffffffffffffffffffffffffffffffffffffffffffffffffffffff1916149050919050565b60008073ffffffffffffffffffffffffffffffffffffffff166002600084815260200190815260200160002060009054906101000a900473ffffffffffffffffffffffffffffffffffffffff1673ffffffffffffffffffffffffffffffffffffffff1614159050919050565b600033905090565b816004600083815260200190815260200160002060006101000a81548173ffffffffffffffffffffffffffffffffffffffff021916908373ffffffffffffffffffffffffffffffffffffffff160217905550808273ffffffffffffffffffffffffffffffffffffffff16611ea183610e55565b73ffffffffffffffffffffffffffffffffffffffff167f8c5be1e5ebec7d5bd14f71427d1e84f3dd0314c0f7b2291e5b200ac8c7c3b92560405160405180910390a45050565b6000611ef282611dba565b611f31576040517f08c379a0000000000000000000000000000000000000000000000000000000008152600401611f2890614062565b60405180910390fd5b6000611f3c83610e55565b90508073ffffffffffffffffffffffffffffffffffffffff168473ffffffffffffffffffffffffffffffffffffffff161480611fab57508373ffffffffffffffffffffffffffffffffffffffff16611f9384610813565b73ffffffffffffffffffffffffffffffffffffffff16145b80611fbc5750611fbb8185611493565b5b91505092915050565b8273ffffffffffffffffffffffffffffffffffffffff16611fe582610e55565b73ffffffffffffffffffffffffffffffffffffffff161461203b576040517f08c379a000000000000000000000000000000000000000000000000000000000815260040161203290613fa2565b60405180910390fd5b600073ffffffffffffffffffffffffffffffffffffffff168273ffffffffffffffffffffffffffffffffffffffff1614156120ab576040517f08c379a00000000000000000000000000000000000000000000000000000000081526004016120a290613fe2565b60405180910390fd5b6120b6838383612cb2565b6120c1600082611e2e565b6001600360008573ffffffffffffffffffffffffffffffffffffffff1673ffffffffffffffffffffffffffffffffffffffff16815260200190815260200160002060008282546121119190614412565b925050819055506001600360008473ffffffffffffffffffffffffffffffffffffffff1673ffffffffffffffffffffffffffffffffffffffff16815260200190815260200160002060008282546121689190614331565b92505081905550816002600083815260200190815260200160002060006101000a81548173ffffffffffffffffffffffffffffffffffffffff021916908373ffffffffffffffffffffffffffffffffffffffff160217905550808273ffffffffffffffffffffffffffffffffffffffff168473ffffffffffffffffffffffffffffffffffffffff167fddf252ad1be2c89b69c2b068fc378daa952ba7f163c4a11628f55a4df523b3ef60405160405180910390a4612227838383612cb7565b505050565b60008060008084519050600092505b808210156123fc57600085838151811061227e577f4e487b7100000000000000000000000000000000000000000000000000000000600052603260045260246000fd5b602001015160f81c60f81b9050608060f81b817effffffffffffffffffffffffffffffffffffffffffffffffffffffffffffff191610156122cd576001836122c69190614331565b92506123e8565b60e060f81b817effffffffffffffffffffffffffffffffffffffffffffffffffffffffffffff1916101561230f576002836123089190614331565b92506123e7565b60f060f81b817effffffffffffffffffffffffffffffffffffffffffffffffffffffffffffff191610156123515760038361234a9190614331565b92506123e6565b60f8801b817effffffffffffffffffffffffffffffffffffffffffffffffffffffffffffff191610156123925760048361238b9190614331565b92506123e5565b60fc60f81b817effffffffffffffffffffffffffffffffffffffffffffffffffffffffffffff191610156123d4576005836123cd9190614331565b92506123e4565b6006836123e19190614331565b92505b5b5b5b5b5082806123f490614571565b93505061223b565b829350505050919050565b8173ffffffffffffffffffffffffffffffffffffffff168373ffffffffffffffffffffffffffffffffffffffff161415612476576040517f08c379a000000000000000000000000000000000000000000000000000000000815260040161246d90614002565b60405180910390fd5b80600560008573ffffffffffffffffffffffffffffffffffffffff1673ffffffffffffffffffffffffffffffffffffffff16815260200190815260200160002060008473ffffffffffffffffffffffffffffffffffffffff1673ffffffffffffffffffffffffffffffffffffffff16815260200190815260200160002060006101000a81548160ff0219169083151502179055508173ffffffffffffffffffffffffffffffffffffffff168373ffffffffffffffffffffffffffffffffffffffff167f17307eab39ab6107e8899845ad3d59bd9653f200f220920489ca2b5937696c31836040516125679190613e4b565b60405180910390a3505050565b61257f848484611fc5565b61258b84848484612cbc565b6125ca576040517f08c379a00000000000000000000000000000000000000000000000000000000081526004016125c190613f82565b60405180910390fd5b50505050565b606060405180602001604052806000815250905090565b60606125f282611dba565b612631576040517f08c379a000000000000000000000000000000000000000000000000000000000815260040161262890614162565b60405180910390fd5b600061263b6125d0565b9050600081511161265b5760405180602001604052806000815250612686565b806126658461269c565b604051602001612676929190613cbe565b6040516020818303038152906040525b915050919050565b600081600001549050919050565b606060008214156126e4576040518060400160405280600181526020017f30000000000000000000000000000000000000000000000000000000000000008152509050612844565b600082905060005b600082146127165780806126ff90614571565b915050600a8261270f9190614387565b91506126ec565b60008167ffffffffffffffff811115612758577f4e487b7100000000000000000000000000000000000000000000000000000000600052604160045260246000fd5b6040519080825280601f01601f19166020018201604052801561278a5781602001600182028036833780820191505090505b5090505b6000851461283d576001826127a39190614412565b9150600a856127b291906145ba565b60306127be9190614331565b60f81b8183815181106127fa577f4e487b7100000000000000000000000000000000000000000000000000000000600052603260045260246000fd5b60200101907effffffffffffffffffffffffffffffffffffffffffffffffffffffffffffff1916908160001a905350600a856128369190614387565b945061278e565b8093505050505b919050565b6128e5848484846040516024016128639493929190613ee3565b6040516020818303038152906040527f9fd009f5000000000000000000000000000000000000000000000000000000007bffffffffffffffffffffffffffffffffffffffffffffffffffffffff19166020820180517bffffffffffffffffffffffffffffffffffffffffffffffffffffffff8381831617835250505050612c89565b50505050565b606060008251905060008114156129145760405180602001604052806000815250915050612aa4565b600060036002836129259190614331565b61292f9190614387565b600461293b91906143b8565b9050600060208261294c9190614331565b67ffffffffffffffff81111561298b577f4e487b7100000000000000000000000000000000000000000000000000000000600052604160045260246000fd5b6040519080825280601f01601f1916602001820160405280156129bd5781602001600182028036833780820191505090505b5090506000604051806060016040528060408152602001614df6604091399050600181016020830160005b86811015612a615760038101905062ffffff818a015116603f8160121c168401518060081b905060ff603f83600c1c1686015116810190508060081b905060ff603f8360061c1686015116810190508060081b905060ff603f831686015116810190508060e01b905080845260048401935050506129e8565b506003860660018114612a7b5760028114612a8b57612a96565b613d3d60f01b6002830352612a96565b603d60f81b60018303525b508484525050819450505050505b919050565b612b3f81604051602401612abd9190613e8a565b6040516020818303038152906040527f41304fac000000000000000000000000000000000000000000000000000000007bffffffffffffffffffffffffffffffffffffffffffffffffffffffff19166020820180517bffffffffffffffffffffffffffffffffffffffffffffffffffffffff8381831617835250505050612c89565b50565b612b5c828260405180602001604052806000815250612e53565b5050565b612b6982611dba565b612ba8576040517f08c379a0000000000000000000000000000000000000000000000000000000008152600401612b9f906140e2565b60405180910390fd5b80600660008481526020019081526020016000209080519060200190612bcf929190613131565b505050565b6001816000016000828254019250508190555050565b612c84838383604051602401612c0293929190613f3d565b6040516020818303038152906040527fa3f5c739000000000000000000000000000000000000000000000000000000007bffffffffffffffffffffffffffffffffffffffffffffffffffffffff19166020820180517bffffffffffffffffffffffffffffffffffffffffffffffffffffffff8381831617835250505050612c89565b505050565b60008151905060006a636f6e736f6c652e6c6f679050602083016000808483855afa5050505050565b505050565b505050565b6000612cdd8473ffffffffffffffffffffffffffffffffffffffff16612eae565b15612e46578373ffffffffffffffffffffffffffffffffffffffff1663150b7a02612d06611e26565b8786866040518563ffffffff1660e01b8152600401612d289493929190613ddd565b602060405180830381600087803b158015612d4257600080fd5b505af1925050508015612d7357506040513d601f19601f82011682018060405250810190612d709190613527565b60015b612df6573d8060008114612da3576040519150601f19603f3d011682016040523d82523d6000602084013e612da8565b606091505b50600081511415612dee576040517f08c379a0000000000000000000000000000000000000000000000000000000008152600401612de590613f82565b60405180910390fd5b805181602001fd5b63150b7a0260e01b7bffffffffffffffffffffffffffffffffffffffffffffffffffffffff1916817bffffffffffffffffffffffffffffffffffffffffffffffffffffffff191614915050612e4b565b600190505b949350505050565b612e5d8383612ed1565b612e6a6000848484612cbc565b612ea9576040517f08c379a0000000000000000000000000000000000000000000000000000000008152600401612ea090613f82565b60405180910390fd5b505050565b6000808273ffffffffffffffffffffffffffffffffffffffff163b119050919050565b600073ffffffffffffffffffffffffffffffffffffffff168273ffffffffffffffffffffffffffffffffffffffff161415612f41576040517f08c379a0000000000000000000000000000000000000000000000000000000008152600401612f3890614102565b60405180910390fd5b612f4a81611dba565b15612f8a576040517f08c379a0000000000000000000000000000000000000000000000000000000008152600401612f8190613fc2565b60405180910390fd5b612f9660008383612cb2565b6001600360008473ffffffffffffffffffffffffffffffffffffffff1673ffffffffffffffffffffffffffffffffffffffff1681526020019081526020016000206000828254612fe69190614331565b92505081905550816002600083815260200190815260200160002060006101000a81548173ffffffffffffffffffffffffffffffffffffffff021916908373ffffffffffffffffffffffffffffffffffffffff160217905550808273ffffffffffffffffffffffffffffffffffffffff16600073ffffffffffffffffffffffffffffffffffffffff167fddf252ad1be2c89b69c2b068fc378daa952ba7f163c4a11628f55a4df523b3ef60405160405180910390a46130a760008383612cb7565b5050565b8280546130b79061450e565b90600052602060002090601f0160209004810192826130d95760008555613120565b82601f106130f257803560ff1916838001178555613120565b82800160010185558215613120579182015b8281111561311f578235825591602001919060010190613104565b5b50905061312d91906131b7565b5090565b82805461313d9061450e565b90600052602060002090601f01602090048101928261315f57600085556131a6565b82601f1061317857805160ff19168380011785556131a6565b828001600101855582156131a6579182015b828111156131a557825182559160200191906001019061318a565b5b5090506131b391906131b7565b5090565b5b808211156131d05760008160009055506001016131b8565b5090565b60006131e76131e284614222565b6141fd565b9050828152602081018484840111156131ff57600080fd5b61320a8482856144cc565b509392505050565b600061322561322084614253565b6141fd565b90508281526020810184848401111561323d57600080fd5b6132488482856144cc565b509392505050565b60008135905061325f81614cf6565b92915050565b60008135905061327481614d0d565b92915050565b60008135905061328981614d24565b92915050565b60008151905061329e81614d24565b92915050565b600082601f8301126132b557600080fd5b81356132c58482602086016131d4565b91505092915050565b60008083601f8401126132e057600080fd5b8235905067ffffffffffffffff8111156132f957600080fd5b60208301915083600182028301111561331157600080fd5b9250929050565b600082601f83011261332957600080fd5b8135613339848260208601613212565b91505092915050565b60008135905061335181614d3b565b92915050565b60006020828403121561336957600080fd5b600061337784828501613250565b91505092915050565b6000806040838503121561339357600080fd5b60006133a185828601613250565b92505060206133b285828601613250565b9150509250929050565b6000806000606084860312156133d157600080fd5b60006133df86828701613250565b93505060206133f086828701613250565b925050604061340186828701613342565b9150509250925092565b6000806000806080858703121561342157600080fd5b600061342f87828801613250565b945050602061344087828801613250565b935050604061345187828801613342565b925050606085013567ffffffffffffffff81111561346e57600080fd5b61347a878288016132a4565b91505092959194509250565b6000806040838503121561349957600080fd5b60006134a785828601613250565b92505060206134b885828601613265565b9150509250929050565b600080604083850312156134d557600080fd5b60006134e385828601613250565b92505060206134f485828601613342565b9150509250929050565b60006020828403121561351057600080fd5b600061351e8482850161327a565b91505092915050565b60006020828403121561353957600080fd5b60006135478482850161328f565b91505092915050565b6000806020838503121561356357600080fd5b600083013567ffffffffffffffff81111561357d57600080fd5b613589858286016132ce565b92509250509250929050565b600080600080604085870312156135ab57600080fd5b600085013567ffffffffffffffff8111156135c557600080fd5b6135d1878288016132ce565b9450945050602085013567ffffffffffffffff8111156135f057600080fd5b6135fc878288016132ce565b925092505092959194509250565b60006020828403121561361c57600080fd5b600082013567ffffffffffffffff81111561363657600080fd5b61364284828501613318565b91505092915050565b60006020828403121561365d57600080fd5b600061366b84828501613342565b91505092915050565b600061368083836137b5565b905092915050565b61369181614458565b82525050565b6136a081614446565b82525050565b60006136b1826142a9565b6136bb81856142d7565b9350836020820285016136cd85614284565b8060005b8581101561370957848403895281516136ea8582613674565b94506136f5836142ca565b925060208a019950506001810190506136d1565b50829750879550505050505092915050565b6137248161446a565b82525050565b6000613735826142b4565b61373f81856142e8565b935061374f8185602086016144db565b613758816146a7565b840191505092915050565b600061376f8385614315565b935061377c8385846144cc565b613785836146a7565b840190509392505050565b600061379c8385614326565b93506137a98385846144cc565b82840190509392505050565b60006137c0826142bf565b6137ca8185614304565b93506137da8185602086016144db565b6137e3816146a7565b840191505092915050565b60006137f9826142bf565b6138038185614315565b93506138138185602086016144db565b61381c816146a7565b840191505092915050565b6000613832826142bf565b61383c8185614326565b935061384c8185602086016144db565b80840191505092915050565b600081546138658161450e565b61386f8186614326565b9450600182166000811461388a576001811461389b576138ce565b60ff198316865281860193506138ce565b6138a485614294565b60005b838110156138c6578154818901526001820191506020810190506138a7565b838801955050505b50505092915050565b60006138e4605a83614326565b91506138ef826146b8565b605a82019050919050565b6000613907603283614315565b91506139128261472d565b604082019050919050565b600061392a602583614315565b91506139358261477c565b604082019050919050565b600061394d601c83614315565b9150613958826147cb565b602082019050919050565b6000613970602483614315565b915061397b826147f4565b604082019050919050565b6000613993601983614315565b915061399e82614843565b602082019050919050565b60006139b6600983614315565b91506139c18261486c565b602082019050919050565b60006139d9601883614315565b91506139e482614895565b602082019050919050565b60006139fc602c83614315565b9150613a07826148be565b604082019050919050565b6000613a1f603883614315565b9150613a2a8261490d565b604082019050919050565b6000613a42600183614326565b9150613a4d8261495c565b600182019050919050565b6000613a65602a83614315565b9150613a7082614985565b604082019050919050565b6000613a88602983614315565b9150613a93826149d4565b604082019050919050565b6000613aab602e83614315565b9150613ab682614a23565b604082019050919050565b6000613ace600283614326565b9150613ad982614a72565b600282019050919050565b6000613af1602083614315565b9150613afc82614a9b565b602082019050919050565b6000613b14603183614315565b9150613b1f82614ac4565b604082019050919050565b6000613b37602c83614315565b9150613b4282614b13565b604082019050919050565b6000613b5a602f83614315565b9150613b6582614b62565b604082019050919050565b6000613b7d600a83614326565b9150613b8882614bb1565b600a82019050919050565b6000613ba0602183614315565b9150613bab82614bda565b604082019050919050565b6000613bc3601d83614326565b9150613bce82614c29565b601d82019050919050565b6000613be6601383614315565b9150613bf182614c52565b602082019050919050565b6000613c09600c83614326565b9150613c1482614c7b565b600c82019050919050565b6000613c2c6000836142f9565b9150613c3782614ca4565b600082019050919050565b6000613c4f603183614315565b9150613c5a82614ca7565b604082019050919050565b613c6e816144c2565b82525050565b6000613c81828486613790565b91508190509392505050565b6000613c9a828587613790565b9150613ca582613a35565b9150613cb18284613858565b9150819050949350505050565b6000613cca8285613827565b9150613cd68284613827565b91508190509392505050565b6000613cee8286613858565b9150613cfa8285613827565b9150613d068284613858565b9150819050949350505050565b6000613d1e82613b70565b9150613d2a8286613827565b9150613d35826138d7565b9150613d418285613827565b9150613d4c82613bfc565b9150613d588284613827565b9150613d6382613ac1565b9150819050949350505050565b6000613d7b82613bb6565b9150613d878284613827565b915081905092915050565b6000613d9d82613c1f565b9150819050919050565b6000602082019050613dbc6000830184613697565b92915050565b6000602082019050613dd76000830184613688565b92915050565b6000608082019050613df26000830187613697565b613dff6020830186613697565b613e0c6040830185613c65565b8181036060830152613e1e818461372a565b905095945050505050565b60006020820190508181036000830152613e4381846136a6565b905092915050565b6000602082019050613e60600083018461371b565b92915050565b60006020820190508181036000830152613e81818486613763565b90509392505050565b60006020820190508181036000830152613ea481846137ee565b905092915050565b60006040820190508181036000830152613ec681856137ee565b90508181036020830152613eda81846137ee565b90509392505050565b60006080820190508181036000830152613efd81876137ee565b90508181036020830152613f1181866137ee565b90508181036040830152613f2581856137ee565b9050613f346060830184613c65565b95945050505050565b60006060820190508181036000830152613f5781866137ee565b9050613f666020830185613c65565b8181036040830152613f7881846137ee565b9050949350505050565b60006020820190508181036000830152613f9b816138fa565b9050919050565b60006020820190508181036000830152613fbb8161391d565b9050919050565b60006020820190508181036000830152613fdb81613940565b9050919050565b60006020820190508181036000830152613ffb81613963565b9050919050565b6000602082019050818103600083015261401b81613986565b9050919050565b6000602082019050818103600083015261403b816139a9565b9050919050565b6000602082019050818103600083015261405b816139cc565b9050919050565b6000602082019050818103600083015261407b816139ef565b9050919050565b6000602082019050818103600083015261409b81613a12565b9050919050565b600060208201905081810360008301526140bb81613a58565b9050919050565b600060208201905081810360008301526140db81613a7b565b9050919050565b600060208201905081810360008301526140fb81613a9e565b9050919050565b6000602082019050818103600083015261411b81613ae4565b9050919050565b6000602082019050818103600083015261413b81613b07565b9050919050565b6000602082019050818103600083015261415b81613b2a565b9050919050565b6000602082019050818103600083015261417b81613b4d565b9050919050565b6000602082019050818103600083015261419b81613b93565b9050919050565b600060208201905081810360008301526141bb81613bd9565b9050919050565b600060208201905081810360008301526141db81613c42565b9050919050565b60006020820190506141f76000830184613c65565b92915050565b6000614207614218565b90506142138282614540565b919050565b6000604051905090565b600067ffffffffffffffff82111561423d5761423c614678565b5b614246826146a7565b9050602081019050919050565b600067ffffffffffffffff82111561426e5761426d614678565b5b614277826146a7565b9050602081019050919050565b6000819050602082019050919050565b60008190508160005260206000209050919050565b600081519050919050565b600081519050919050565b600081519050919050565b6000602082019050919050565b600082825260208201905092915050565b600082825260208201905092915050565b600081905092915050565b600082825260208201905092915050565b600082825260208201905092915050565b600081905092915050565b600061433c826144c2565b9150614347836144c2565b9250827fffffffffffffffffffffffffffffffffffffffffffffffffffffffffffffffff0382111561437c5761437b6145eb565b5b828201905092915050565b6000614392826144c2565b915061439d836144c2565b9250826143ad576143ac61461a565b5b828204905092915050565b60006143c3826144c2565b91506143ce836144c2565b9250817fffffffffffffffffffffffffffffffffffffffffffffffffffffffffffffffff0483118215151615614407576144066145eb565b5b828202905092915050565b600061441d826144c2565b9150614428836144c2565b92508282101561443b5761443a6145eb565b5b828203905092915050565b6000614451826144a2565b9050919050565b6000614463826144a2565b9050919050565b60008115159050919050565b60007fffffffff0000000000000000000000000000000000000000000000000000000082169050919050565b600073ffffffffffffffffffffffffffffffffffffffff82169050919050565b6000819050919050565b82818337600083830152505050565b60005b838110156144f95780820151818401526020810190506144de565b83811115614508576000848401525b50505050565b6000600282049050600182168061452657607f821691505b6020821081141561453a57614539614649565b5b50919050565b614549826146a7565b810181811067ffffffffffffffff8211171561456857614567614678565b5b80604052505050565b600061457c826144c2565b91507fffffffffffffffffffffffffffffffffffffffffffffffffffffffffffffffff8214156145af576145ae6145eb565b5b600182019050919050565b60006145c5826144c2565b91506145d0836144c2565b9250826145e0576145df61461a565b5b828206905092915050565b7f4e487b7100000000000000000000000000000000000000000000000000000000600052601160045260246000fd5b7f4e487b7100000000000000000000000000000000000000000000000000000000600052601260045260246000fd5b7f4e487b7100000000000000000000000000000000000000000000000000000000600052602260045260246000fd5b7f4e487b7100000000000000000000000000000000000000000000000000000000600052604160045260246000fd5b6000601f19601f8301169050919050565b7f222c20226465736372697074696f6e223a20224120646f6d61696e206f6e207460008201527f686520575446206e616d652073657276696365222c2022696d616765223a202260208201527f646174613a696d6167652f7376672b786d6c3b6261736536342c000000000000604082015250565b7f4552433732313a207472616e7366657220746f206e6f6e20455243373231526560008201527f63656976657220696d706c656d656e7465720000000000000000000000000000602082015250565b7f4552433732313a207472616e736665722066726f6d20696e636f72726563742060008201527f6f776e6572000000000000000000000000000000000000000000000000000000602082015250565b7f4552433732313a20746f6b656e20616c7265616479206d696e74656400000000600082015250565b7f4552433732313a207472616e7366657220746f20746865207a65726f2061646460008201527f7265737300000000000000000000000000000000000000000000000000000000602082015250565b7f4552433732313a20617070726f766520746f2063616c6c657200000000000000600082015250565b7f4e6f74204f776e65720000000000000000000000000000000000000000000000600082015250565b7f4661696c656420746f207769746864726177204d617469630000000000000000600082015250565b7f4552433732313a206f70657261746f7220717565727920666f72206e6f6e657860008201527f697374656e7420746f6b656e0000000000000000000000000000000000000000602082015250565b7f4552433732313a20617070726f76652063616c6c6572206973206e6f74206f7760008201527f6e6572206e6f7220617070726f76656420666f7220616c6c0000000000000000602082015250565b7f2e00000000000000000000000000000000000000000000000000000000000000600082015250565b7f4552433732313a2062616c616e636520717565727920666f7220746865207a6560008201527f726f206164647265737300000000000000000000000000000000000000000000602082015250565b7f4552433732313a206f776e657220717565727920666f72206e6f6e657869737460008201527f656e7420746f6b656e0000000000000000000000000000000000000000000000602082015250565b7f45524337323155524953746f726167653a2055524920736574206f66206e6f6e60008201527f6578697374656e7420746f6b656e000000000000000000000000000000000000602082015250565b7f227d000000000000000000000000000000000000000000000000000000000000600082015250565b7f4552433732313a206d696e7420746f20746865207a65726f2061646472657373600082015250565b7f45524337323155524953746f726167653a2055524920717565727920666f722060008201527f6e6f6e6578697374656e7420746f6b656e000000000000000000000000000000602082015250565b7f4552433732313a20617070726f76656420717565727920666f72206e6f6e657860008201527f697374656e7420746f6b656e0000000000000000000000000000000000000000602082015250565b7f4552433732314d657461646174613a2055524920717565727920666f72206e6f60008201527f6e6578697374656e7420746f6b656e0000000000000000000000000000000000602082015250565b7f7b226e616d65223a202200000000000000000000000000000000000000000000600082015250565b7f4552433732313a20617070726f76616c20746f2063757272656e74206f776e6560008201527f7200000000000000000000000000000000000000000000000000000000000000602082015250565b7f646174613a6170706c69636174696f6e2f6a736f6e3b6261736536342c000000600082015250565b7f4e6f7420656e6f75676820455448207061696400000000000000000000000000600082015250565b7f222c226c656e677468223a220000000000000000000000000000000000000000600082015250565b50565b7f4552433732313a207472616e736665722063616c6c6572206973206e6f74206f60008201527f776e6572206e6f7220617070726f766564000000000000000000000000000000602082015250565b614cff81614446565b8114614d0a57600080fd5b50565b614d168161446a565b8114614d2157600080fd5b50565b614d2d81614476565b8114614d3857600080fd5b50565b614d44816144c2565b8114614d4f57600080fd5b5056fe0a2d2d2d2d2d2d2d2d2d2d2d2d2d2d2d2d2d2d2d2d2d2d2d2d2d2d2d2d2d2d2d2d2d2d2d2d2d2d2d2d2d2d2d2d2d2d2d2d2d2d2d2d2d2d2d2d5265676973746572696e672025732e2573206f6e2074686520636f6e7472616374207769746820746f6b656e49442025642d2d2d2d2d2d2d2d2d2d2d2d2d2d2d2d2d2d2d2d2d2d2d2d2d2d2d2d2d2d2d2d2d2d2d2d2d2d2d2d2d2d2d2d2d2d2d2d2d2d2d2d2d2d2d2d0a4142434445464748494a4b4c4d4e4f505152535455565758595a6162636465666768696a6b6c6d6e6f707172737475767778797a303132333435363738392b2fa264697066735822122071a8b5d7aa1e8f4bf90e67922713c8b628c96c813a5b6c67037f0604fac0ef8464736f6c634300080400333c73766720786d6c6e733d22687474703a2f2f7777772e77332e6f72672f323030302f737667222077696474683d2232373022206865696768743d22323730222066696c6c3d226e6f6e65223e3c706174682066696c6c3d2275726c282342292220643d224d302030683237307632373048307a222f3e3c646566733e3c66696c7465722069643d22412220636f6c6f722d696e746572706f6c6174696f6e2d66696c746572733d2273524742222066696c746572556e6974733d227573657253706163654f6e55736522206865696768743d22323730222077696474683d22323730223e3c666544726f70536861646f772064783d2230222064793d22312220737464446576696174696f6e3d22322220666c6f6f642d6f7061636974793d222e323235222077696474683d223230302522206865696768743d2232303025222f3e3c2f66696c7465723e3c2f646566733e3c7061746820643d224d37322e3836332034322e393439632d2e3636382d2e3338372d312e3432362d2e35392d322e3139372d2e3539732d312e3532392e3230342d322e3139372e35396c2d31302e30383120362e3033322d362e383520332e3933342d31302e30383120362e303332632d2e3636382e3338372d312e3432362e35392d322e3139372e3539732d312e3532392d2e3230342d322e3139372d2e35396c2d382e3031332d342e37323161342e353220342e35322030203020312d312e3538392d312e363136632d2e3338342d2e3636352d2e3539342d312e3431382d2e3630382d322e313837762d392e3331632d2e3031332d2e3737352e3138352d312e3533382e3537322d322e32303861342e323520342e323520302030203120312e3632352d312e3539356c372e3838342d342e3539632e3636382d2e33383720312e3432362d2e353920322e3139372d2e353973312e3532392e32303420322e3139372e35396c372e38383420342e353961342e353220342e353220302030203120312e35383920312e363136632e3338342e3636352e35393420312e3431382e36303820322e31383776362e3033326c362e38352d342e303635762d362e303332632e3031332d2e3737352d2e3138352d312e3533382d2e3537322d322e32303861342e323520342e32352030203020302d312e3632352d312e3539354c34312e3435362032342e3539632d2e3636382d2e3338372d312e3432362d2e35392d322e3139372d2e3539732d312e3532392e3230342d322e3139372e35396c2d31342e38363420382e36353561342e323520342e32352030203020302d312e36323520312e353935632d2e3338372e36372d2e35383520312e3433342d2e35373220322e3230387631372e343431632d2e3031332e3737352e31383520312e3533382e35373220322e32303861342e323520342e323520302030203020312e36323520312e3539356c31342e38363420382e363535632e3636382e33383720312e3432362e353920322e3139372e353973312e3532392d2e32303420322e3139372d2e35396c31302e3038312d352e39303120362e38352d342e3036352031302e3038312d352e393031632e3636382d2e33383720312e3432362d2e353920322e3139372d2e353973312e3532392e32303420322e3139372e35396c372e38383420342e353961342e353220342e353220302030203120312e35383920312e363136632e3338342e3636352e35393420312e3431382e36303820322e31383776392e333131632e3031332e3737352d2e31383520312e3533382d2e35373220322e32303861342e323520342e32352030203020312d312e36323520312e3539356c2d372e38383420342e373231632d2e3636382e3338372d312e3432362e35392d322e3139372e3539732d312e3532392d2e3230342d322e3139372d2e35396c2d372e3838342d342e353961342e353220342e35322030203020312d312e3538392d312e363136632d2e3338352d2e3636352d2e3539342d312e3431382d2e3630382d322e313837762d362e3033326c2d362e383520342e30363576362e303332632d2e3031332e3737352e31383520312e3533382e35373220322e32303861342e323520342e323520302030203020312e36323520312e3539356c31342e38363420382e363535632e3636382e33383720312e3432362e353920322e3139372e353973312e3532392d2e32303420322e3139372d2e35396c31342e3836342d382e363535632e3635372d2e33393420312e3230342d2e393520312e3538392d312e363136732e3539342d312e3431382e3630392d322e3138375635352e353338632e3031332d2e3737352d2e3138352d312e3533382d2e3537322d322e32303861342e323520342e32352030203020302d312e3632352d312e3539356c2d31342e3939332d382e3738367a222066696c6c3d2223666666222f3e3c646566733e3c6c696e6561724772616469656e742069643d2242222078313d2230222079313d2230222078323d22323730222079323d2232373022206772616469656e74556e6974733d227573657253706163654f6e557365223e3c73746f702073746f702d636f6c6f723d2223636235656565222f3e3c73746f70206f66667365743d2231222073746f702d636f6c6f723d2223306364376534222073746f702d6f7061636974793d222e3939222f3e3c2f6c696e6561724772616469656e743e3c2f646566733e3c7465787420783d2233322e352220793d223233312220666f6e742d73697a653d223237222066696c6c3d2223666666222066696c7465723d2275726c282341292220666f6e742d66616d696c793d22506c7573204a616b617274612053616e732c44656a6156752053616e732c4e6f746f20436f6c6f7220456d6f6a692c4170706c6520436f6c6f7220456d6f6a692c73616e732d73657269662220666f6e742d7765696768743d22626f6c64223e",
  "linkReferences": {},
  "deployedLinkReferences": {}
}